{
  "contractName": "Fundraiser",
  "abi": [
    {
      "inputs": [
        {
          "internalType": "uint256",
          "name": "_id",
          "type": "uint256"
        },
        {
          "internalType": "string",
          "name": "_name",
          "type": "string"
        },
        {
          "internalType": "string[]",
          "name": "_images",
          "type": "string[]"
        },
        {
          "internalType": "string[]",
          "name": "_categories",
          "type": "string[]"
        },
        {
          "internalType": "string",
          "name": "_description",
          "type": "string"
        },
        {
          "internalType": "string",
          "name": "_region",
          "type": "string"
        },
        {
          "internalType": "address payable",
          "name": "_beneficiary",
          "type": "address"
        },
        {
          "internalType": "address",
          "name": "_custodian",
          "type": "address"
        },
        {
          "internalType": "uint256",
          "name": "_goal",
          "type": "uint256"
        }
      ],
      "stateMutability": "nonpayable",
      "type": "constructor"
    },
    {
      "anonymous": false,
      "inputs": [
        {
          "indexed": true,
          "internalType": "address",
          "name": "donor",
          "type": "address"
        },
        {
          "indexed": false,
          "internalType": "uint256",
          "name": "value",
          "type": "uint256"
        }
      ],
      "name": "DonationReceived",
      "type": "event"
    },
    {
      "anonymous": false,
      "inputs": [
        {
          "indexed": true,
          "internalType": "address",
          "name": "previousOwner",
          "type": "address"
        },
        {
          "indexed": true,
          "internalType": "address",
          "name": "newOwner",
          "type": "address"
        }
      ],
      "name": "OwnershipTransferred",
      "type": "event"
    },
    {
      "anonymous": false,
      "inputs": [
        {
          "indexed": false,
          "internalType": "uint256",
          "name": "amount",
          "type": "uint256"
        }
      ],
      "name": "Withdraw",
      "type": "event"
    },
    {
      "inputs": [],
      "name": "beneficiary",
      "outputs": [
        {
          "internalType": "address payable",
          "name": "",
          "type": "address"
        }
      ],
      "stateMutability": "view",
      "type": "function"
    },
    {
      "inputs": [
        {
          "internalType": "uint256",
          "name": "",
          "type": "uint256"
        }
      ],
      "name": "categories",
      "outputs": [
        {
          "internalType": "string",
          "name": "",
          "type": "string"
        }
      ],
      "stateMutability": "view",
      "type": "function"
    },
    {
      "inputs": [],
      "name": "custodian",
      "outputs": [
        {
          "internalType": "address",
          "name": "",
          "type": "address"
        }
      ],
      "stateMutability": "view",
      "type": "function"
    },
    {
      "inputs": [],
      "name": "description",
      "outputs": [
        {
          "internalType": "string",
          "name": "",
          "type": "string"
        }
      ],
      "stateMutability": "view",
      "type": "function"
    },
    {
      "inputs": [],
      "name": "donationsCount",
      "outputs": [
        {
          "internalType": "uint256",
          "name": "",
          "type": "uint256"
        }
      ],
      "stateMutability": "view",
      "type": "function"
    },
    {
      "inputs": [],
      "name": "goal",
      "outputs": [
        {
          "internalType": "uint256",
          "name": "",
          "type": "uint256"
        }
      ],
      "stateMutability": "view",
      "type": "function"
    },
    {
      "inputs": [],
      "name": "id",
      "outputs": [
        {
          "internalType": "uint256",
          "name": "",
          "type": "uint256"
        }
      ],
      "stateMutability": "view",
      "type": "function"
    },
    {
      "inputs": [
        {
          "internalType": "uint256",
          "name": "",
          "type": "uint256"
        }
      ],
      "name": "images",
      "outputs": [
        {
          "internalType": "string",
          "name": "",
          "type": "string"
        }
      ],
      "stateMutability": "view",
      "type": "function"
    },
    {
      "inputs": [],
      "name": "name",
      "outputs": [
        {
          "internalType": "string",
          "name": "",
          "type": "string"
        }
      ],
      "stateMutability": "view",
      "type": "function"
    },
    {
      "inputs": [],
      "name": "owner",
      "outputs": [
        {
          "internalType": "address",
          "name": "",
          "type": "address"
        }
      ],
      "stateMutability": "view",
      "type": "function"
    },
    {
      "inputs": [],
      "name": "region",
      "outputs": [
        {
          "internalType": "string",
          "name": "",
          "type": "string"
        }
      ],
      "stateMutability": "view",
      "type": "function"
    },
    {
      "inputs": [],
      "name": "renounceOwnership",
      "outputs": [],
      "stateMutability": "nonpayable",
      "type": "function"
    },
    {
      "inputs": [],
      "name": "totalDonations",
      "outputs": [
        {
          "internalType": "uint256",
          "name": "",
          "type": "uint256"
        }
      ],
      "stateMutability": "view",
      "type": "function"
    },
    {
      "inputs": [],
      "name": "totalDonationsCount",
      "outputs": [
        {
          "internalType": "uint256",
          "name": "",
          "type": "uint256"
        }
      ],
      "stateMutability": "view",
      "type": "function"
    },
    {
      "inputs": [
        {
          "internalType": "address",
          "name": "newOwner",
          "type": "address"
        }
      ],
      "name": "transferOwnership",
      "outputs": [],
      "stateMutability": "nonpayable",
      "type": "function"
    },
    {
      "stateMutability": "payable",
      "type": "receive"
    },
    {
      "inputs": [
        {
          "internalType": "address payable",
          "name": "_beneficiary",
          "type": "address"
        }
      ],
      "name": "setBeneficiary",
      "outputs": [],
      "stateMutability": "nonpayable",
      "type": "function"
    },
    {
      "inputs": [],
      "name": "getImageUrls",
      "outputs": [
        {
          "internalType": "string[]",
          "name": "",
          "type": "string[]"
        }
      ],
      "stateMutability": "view",
      "type": "function"
    },
    {
      "inputs": [],
      "name": "getCategories",
      "outputs": [
        {
          "internalType": "string[]",
          "name": "",
          "type": "string[]"
        }
      ],
      "stateMutability": "view",
      "type": "function"
    },
    {
      "inputs": [],
      "name": "myDonationsCount",
      "outputs": [
        {
          "internalType": "uint256",
          "name": "",
          "type": "uint256"
        }
      ],
      "stateMutability": "view",
      "type": "function"
    },
    {
      "inputs": [],
      "name": "allDonationsCount",
      "outputs": [
        {
          "internalType": "uint256",
          "name": "",
          "type": "uint256"
        }
      ],
      "stateMutability": "view",
      "type": "function"
    },
    {
      "inputs": [],
      "name": "donate",
      "outputs": [],
      "stateMutability": "payable",
      "type": "function"
    },
    {
      "inputs": [],
      "name": "myDonations",
      "outputs": [
        {
          "internalType": "uint256[]",
          "name": "values",
          "type": "uint256[]"
        },
        {
          "internalType": "uint256[]",
          "name": "dates",
          "type": "uint256[]"
        }
      ],
      "stateMutability": "view",
      "type": "function"
    },
    {
      "inputs": [],
      "name": "allDonations",
      "outputs": [
        {
          "internalType": "address[]",
          "name": "donors",
          "type": "address[]"
        },
        {
          "internalType": "uint256[]",
          "name": "values",
          "type": "uint256[]"
        },
        {
          "internalType": "uint256[]",
          "name": "dates",
          "type": "uint256[]"
        }
      ],
      "stateMutability": "view",
      "type": "function"
    },
    {
      "inputs": [],
      "name": "withdraw",
      "outputs": [],
      "stateMutability": "nonpayable",
      "type": "function"
    }
  ],
  "bytecode": "0x60806040523480156200001157600080fd5b50604051620026f0380380620026f08339818101604052810190620000379190620004dd565b620000576200004b6200014360201b60201c565b6200014b60201b60201c565b886003819055508760049080519060200190620000769291906200020f565b5086600590805190602001906200008f929190620002a0565b508560069080519060200190620000a8929190620002a0565b508460079080519060200190620000c19291906200020f565b508360089080519060200190620000da9291906200020f565b5082600960006101000a81548173ffffffffffffffffffffffffffffffffffffffff021916908373ffffffffffffffffffffffffffffffffffffffff1602179055506200012d826200014b60201b60201c565b80600e8190555050505050505050505062000833565b600033905090565b60008060009054906101000a900473ffffffffffffffffffffffffffffffffffffffff169050816000806101000a81548173ffffffffffffffffffffffffffffffffffffffff021916908373ffffffffffffffffffffffffffffffffffffffff1602179055508173ffffffffffffffffffffffffffffffffffffffff168173ffffffffffffffffffffffffffffffffffffffff167f8be0079c531659141344cd1fd0a4f28419497f9722a3daafe3b4186f6b6457e060405160405180910390a35050565b8280546200021d9062000751565b90600052602060002090601f0160209004810192826200024157600085556200028d565b82601f106200025c57805160ff19168380011785556200028d565b828001600101855582156200028d579182015b828111156200028c5782518255916020019190600101906200026f565b5b5090506200029c919062000307565b5090565b828054828255906000526020600020908101928215620002f4579160200282015b82811115620002f3578251829080519060200190620002e29291906200020f565b5091602001919060010190620002c1565b5b50905062000303919062000326565b5090565b5b808211156200032257600081600090555060010162000308565b5090565b5b808211156200034a57600081816200034091906200034e565b5060010162000327565b5090565b5080546200035c9062000751565b6000825580601f1062000370575062000391565b601f01602090049060005260206000209081019062000390919062000307565b5b50565b6000620003ab620003a58462000667565b62000633565b9050808382526020820190508260005b85811015620003ef5781518501620003d4888262000499565b845260208401935060208301925050600181019050620003bb565b5050509392505050565b6000620004106200040a8462000696565b62000633565b9050828152602081018484840111156200042957600080fd5b620004368482856200071b565b509392505050565b6000815190506200044f81620007e5565b92915050565b6000815190506200046681620007ff565b92915050565b600082601f8301126200047e57600080fd5b81516200049084826020860162000394565b91505092915050565b600082601f830112620004ab57600080fd5b8151620004bd848260208601620003f9565b91505092915050565b600081519050620004d78162000819565b92915050565b60008060008060008060008060006101208a8c031215620004fd57600080fd5b60006200050d8c828d01620004c6565b99505060208a015167ffffffffffffffff8111156200052b57600080fd5b620005398c828d0162000499565b98505060408a015167ffffffffffffffff8111156200055757600080fd5b620005658c828d016200046c565b97505060608a015167ffffffffffffffff8111156200058357600080fd5b620005918c828d016200046c565b96505060808a015167ffffffffffffffff811115620005af57600080fd5b620005bd8c828d0162000499565b95505060a08a015167ffffffffffffffff811115620005db57600080fd5b620005e98c828d0162000499565b94505060c0620005fc8c828d0162000455565b93505060e06200060f8c828d016200043e565b925050610100620006238c828d01620004c6565b9150509295985092959850929598565b6000604051905081810181811067ffffffffffffffff821117156200065d576200065c620007b6565b5b8060405250919050565b600067ffffffffffffffff821115620006855762000684620007b6565b5b602082029050602081019050919050565b600067ffffffffffffffff821115620006b457620006b3620007b6565b5b601f19601f8301169050602081019050919050565b6000620006d682620006f1565b9050919050565b6000620006ea82620006f1565b9050919050565b600073ffffffffffffffffffffffffffffffffffffffff82169050919050565b6000819050919050565b60005b838110156200073b5780820151818401526020810190506200071e565b838111156200074b576000848401525b50505050565b600060028204905060018216806200076a57607f821691505b6020821081141562000781576200078062000787565b5b50919050565b7f4e487b7100000000000000000000000000000000000000000000000000000000600052602260045260246000fd5b7f4e487b7100000000000000000000000000000000000000000000000000000000600052604160045260246000fd5b620007f081620006c9565b8114620007fc57600080fd5b50565b6200080a81620006dd565b81146200081657600080fd5b50565b620008248162000711565b81146200083057600080fd5b50565b611ead80620008436000396000f3fe60806040526004361061014f5760003560e01c80634db0412c116100b6578063af640d0f1161006f578063af640d0f1461047d578063c6cdbe5e146104a8578063de2ed893146104e5578063dfe0039b14610510578063ed88c68e1461053d578063f2fde38b1461054757610189565b80634db0412c1461037d5780635062d68d146103a8578063715018a6146103d35780637284e416146103ea57806384856482146104155780638da5cb5b1461045257610189565b80631f522595116101085780631f5225951461028f578063375b74c3146102ba57806338af3eed146102e55780633ccfd60b146103105780633fa095da14610327578063401938831461035257610189565b80630180b97c1461018e57806306fdde03146101b95780630fd63e8e146101e45780631868611b1461020f5780631a57f7b41461023a5780631c31f7101461026657610189565b366101895761016934600b5461057090919063ffffffff16565b600b81905550600d600081548092919061018290611d7a565b9190505550005b600080fd5b34801561019a57600080fd5b506101a3610586565b6040516101b09190611b7e565b60405180910390f35b3480156101c557600080fd5b506101ce6105d0565b6040516101db9190611b1c565b60405180910390f35b3480156101f057600080fd5b506101f961065e565b6040516102069190611b7e565b60405180910390f35b34801561021b57600080fd5b50610224610664565b6040516102319190611ac3565b60405180910390f35b34801561024657600080fd5b5061024f61073d565b60405161025d929190611ae5565b60405180910390f35b34801561027257600080fd5b5061028d60048036038101906102889190611717565b610970565b005b34801561029b57600080fd5b506102a4610a30565b6040516102b19190611b7e565b60405180910390f35b3480156102c657600080fd5b506102cf610a36565b6040516102dc9190611a41565b60405180910390f35b3480156102f157600080fd5b506102fa610a5c565b6040516103079190611a5c565b60405180910390f35b34801561031c57600080fd5b50610325610a82565b005b34801561033357600080fd5b5061033c610ba6565b6040516103499190611b7e565b60405180910390f35b34801561035e57600080fd5b50610367610bc6565b6040516103749190611b7e565b60405180910390f35b34801561038957600080fd5b50610392610bcc565b60405161039f9190611ac3565b60405180910390f35b3480156103b457600080fd5b506103bd610ca5565b6040516103ca9190611b1c565b60405180910390f35b3480156103df57600080fd5b506103e8610d33565b005b3480156103f657600080fd5b506103ff610dbb565b60405161040c9190611b1c565b60405180910390f35b34801561042157600080fd5b5061043c60048036038101906104379190611740565b610e49565b6040516104499190611b1c565b60405180910390f35b34801561045e57600080fd5b50610467610ef5565b6040516104749190611a41565b60405180910390f35b34801561048957600080fd5b50610492610f1e565b60405161049f9190611b7e565b60405180910390f35b3480156104b457600080fd5b506104cf60048036038101906104ca9190611740565b610f24565b6040516104dc9190611b1c565b60405180910390f35b3480156104f157600080fd5b506104fa610fd0565b6040516105079190611b7e565b60405180910390f35b34801561051c57600080fd5b50610525610fd6565b60405161053493929190611a77565b60405180910390f35b6105456112eb565b005b34801561055357600080fd5b5061056e600480360381019061056991906116ee565b6114eb565b005b6000818361057e9190611c71565b905092915050565b6000600160003373ffffffffffffffffffffffffffffffffffffffff1673ffffffffffffffffffffffffffffffffffffffff16815260200190815260200160002080549050905090565b600480546105dd90611d48565b80601f016020809104026020016040519081016040528092919081815260200182805461060990611d48565b80156106565780601f1061062b57610100808354040283529160200191610656565b820191906000526020600020905b81548152906001019060200180831161063957829003601f168201915b505050505081565b600c5481565b60606005805480602002602001604051908101604052809291908181526020016000905b828210156107345783829060005260206000200180546106a790611d48565b80601f01602080910402602001604051908101604052809291908181526020018280546106d390611d48565b80156107205780601f106106f557610100808354040283529160200191610720565b820191906000526020600020905b81548152906001019060200180831161070357829003601f168201915b505050505081526020019060010190610688565b50505050905090565b606080600061074a610586565b90508067ffffffffffffffff81111561078c577f4e487b7100000000000000000000000000000000000000000000000000000000600052604160045260246000fd5b6040519080825280602002602001820160405280156107ba5781602001602082028036833780820191505090505b5092508067ffffffffffffffff8111156107fd577f4e487b7100000000000000000000000000000000000000000000000000000000600052604160045260246000fd5b60405190808252806020026020018201604052801561082b5781602001602082028036833780820191505090505b50915060005b8181101561096a576000600160003373ffffffffffffffffffffffffffffffffffffffff1673ffffffffffffffffffffffffffffffffffffffff16815260200190815260200160002082815481106108b2577f4e487b7100000000000000000000000000000000000000000000000000000000600052603260045260246000fd5b906000526020600020906002020190508060000154858381518110610900577f4e487b7100000000000000000000000000000000000000000000000000000000600052603260045260246000fd5b602002602001018181525050806001015484838151811061094a577f4e487b7100000000000000000000000000000000000000000000000000000000600052603260045260246000fd5b60200260200101818152505050808061096290611d7a565b915050610831565b50509091565b6109786115e3565b73ffffffffffffffffffffffffffffffffffffffff16610996610ef5565b73ffffffffffffffffffffffffffffffffffffffff16146109ec576040517f08c379a00000000000000000000000000000000000000000000000000000000081526004016109e390611b5e565b60405180910390fd5b80600960006101000a81548173ffffffffffffffffffffffffffffffffffffffff021916908373ffffffffffffffffffffffffffffffffffffffff16021790555050565b600d5481565b600a60009054906101000a900473ffffffffffffffffffffffffffffffffffffffff1681565b600960009054906101000a900473ffffffffffffffffffffffffffffffffffffffff1681565b610a8a6115e3565b73ffffffffffffffffffffffffffffffffffffffff16610aa8610ef5565b73ffffffffffffffffffffffffffffffffffffffff1614610afe576040517f08c379a0000000000000000000000000000000000000000000000000000000008152600401610af590611b5e565b60405180910390fd5b6000479050600960009054906101000a900473ffffffffffffffffffffffffffffffffffffffff1673ffffffffffffffffffffffffffffffffffffffff166108fc829081150290604051600060405180830381858888f19350505050158015610b6b573d6000803e3d6000fd5b507f5b6b431d4476a211bb7d41c20d1aab9ae2321deee0d20be3d9fc9b1093fa6e3d81604051610b9b9190611b7e565b60405180910390a150565b600060026000600354815260200190815260200160002080549050905090565b600e5481565b60606006805480602002602001604051908101604052809291908181526020016000905b82821015610c9c578382906000526020600020018054610c0f90611d48565b80601f0160208091040260200160405190810160405280929190818152602001828054610c3b90611d48565b8015610c885780601f10610c5d57610100808354040283529160200191610c88565b820191906000526020600020905b815481529060010190602001808311610c6b57829003601f168201915b505050505081526020019060010190610bf0565b50505050905090565b60088054610cb290611d48565b80601f0160208091040260200160405190810160405280929190818152602001828054610cde90611d48565b8015610d2b5780601f10610d0057610100808354040283529160200191610d2b565b820191906000526020600020905b815481529060010190602001808311610d0e57829003601f168201915b505050505081565b610d3b6115e3565b73ffffffffffffffffffffffffffffffffffffffff16610d59610ef5565b73ffffffffffffffffffffffffffffffffffffffff1614610daf576040517f08c379a0000000000000000000000000000000000000000000000000000000008152600401610da690611b5e565b60405180910390fd5b610db960006115eb565b565b60078054610dc890611d48565b80601f0160208091040260200160405190810160405280929190818152602001828054610df490611d48565b8015610e415780601f10610e1657610100808354040283529160200191610e41565b820191906000526020600020905b815481529060010190602001808311610e2457829003601f168201915b505050505081565b60058181548110610e5957600080fd5b906000526020600020016000915090508054610e7490611d48565b80601f0160208091040260200160405190810160405280929190818152602001828054610ea090611d48565b8015610eed5780601f10610ec257610100808354040283529160200191610eed565b820191906000526020600020905b815481529060010190602001808311610ed057829003601f168201915b505050505081565b60008060009054906101000a900473ffffffffffffffffffffffffffffffffffffffff16905090565b60035481565b60068181548110610f3457600080fd5b906000526020600020016000915090508054610f4f90611d48565b80601f0160208091040260200160405190810160405280929190818152602001828054610f7b90611d48565b8015610fc85780601f10610f9d57610100808354040283529160200191610fc8565b820191906000526020600020905b815481529060010190602001808311610fab57829003601f168201915b505050505081565b600b5481565b60608060606000610fe5610ba6565b90508067ffffffffffffffff811115611027577f4e487b7100000000000000000000000000000000000000000000000000000000600052604160045260246000fd5b6040519080825280602002602001820160405280156110555781602001602082028036833780820191505090505b5093508067ffffffffffffffff811115611098577f4e487b7100000000000000000000000000000000000000000000000000000000600052604160045260246000fd5b6040519080825280602002602001820160405280156110c65781602001602082028036833780820191505090505b5092508067ffffffffffffffff811115611109577f4e487b7100000000000000000000000000000000000000000000000000000000600052604160045260246000fd5b6040519080825280602002602001820160405280156111375781602001602082028036833780820191505090505b50915060005b818110156112e45760006002600060035481526020019081526020016000208281548110611194577f4e487b7100000000000000000000000000000000000000000000000000000000600052603260045260246000fd5b906000526020600020906003020190508060000160009054906101000a900473ffffffffffffffffffffffffffffffffffffffff16868381518110611202577f4e487b7100000000000000000000000000000000000000000000000000000000600052603260045260246000fd5b602002602001019073ffffffffffffffffffffffffffffffffffffffff16908173ffffffffffffffffffffffffffffffffffffffff1681525050806001015485838151811061127a577f4e487b7100000000000000000000000000000000000000000000000000000000600052603260045260246000fd5b60200260200101818152505080600201548483815181106112c4577f4e487b7100000000000000000000000000000000000000000000000000000000600052603260045260246000fd5b6020026020010181815250505080806112dc90611d7a565b91505061113d565b5050909192565b60006040518060400160405280348152602001428152509050600060405180606001604052803373ffffffffffffffffffffffffffffffffffffffff168152602001348152602001428152509050600160003373ffffffffffffffffffffffffffffffffffffffff1673ffffffffffffffffffffffffffffffffffffffff1681526020019081526020016000208290806001815401808255809150506001900390600052602060002090600202016000909190919091506000820151816000015560208201518160010155505060026000600354815260200190815260200160002081908060018154018082558091505060019003906000526020600020906003020160009091909190915060008201518160000160006101000a81548173ffffffffffffffffffffffffffffffffffffffff021916908373ffffffffffffffffffffffffffffffffffffffff1602179055506020820151816001015560408201518160020155505061146934600b5461057090919063ffffffff16565b600b819055506001600d5461147e9190611c71565b600d819055506001600c546114939190611c71565b600c819055503373ffffffffffffffffffffffffffffffffffffffff167f264f630d9efa0d07053a31163641d9fcc0adafc9d9e76f1c37c2ce3a558d2c52346040516114df9190611b7e565b60405180910390a25050565b6114f36115e3565b73ffffffffffffffffffffffffffffffffffffffff16611511610ef5565b73ffffffffffffffffffffffffffffffffffffffff1614611567576040517f08c379a000000000000000000000000000000000000000000000000000000000815260040161155e90611b5e565b60405180910390fd5b600073ffffffffffffffffffffffffffffffffffffffff168173ffffffffffffffffffffffffffffffffffffffff1614156115d7576040517f08c379a00000000000000000000000000000000000000000000000000000000081526004016115ce90611b3e565b60405180910390fd5b6115e0816115eb565b50565b600033905090565b60008060009054906101000a900473ffffffffffffffffffffffffffffffffffffffff169050816000806101000a81548173ffffffffffffffffffffffffffffffffffffffff021916908373ffffffffffffffffffffffffffffffffffffffff1602179055508173ffffffffffffffffffffffffffffffffffffffff168173ffffffffffffffffffffffffffffffffffffffff167f8be0079c531659141344cd1fd0a4f28419497f9722a3daafe3b4186f6b6457e060405160405180910390a35050565b6000813590506116be81611e32565b92915050565b6000813590506116d381611e49565b92915050565b6000813590506116e881611e60565b92915050565b60006020828403121561170057600080fd5b600061170e848285016116af565b91505092915050565b60006020828403121561172957600080fd5b6000611737848285016116c4565b91505092915050565b60006020828403121561175257600080fd5b6000611760848285016116d9565b91505092915050565b600061177583836117bc565b60208301905092915050565b600061178d838361190b565b905092915050565b60006117a18383611a23565b60208301905092915050565b6117b681611cd9565b82525050565b6117c581611cc7565b82525050565b6117d481611cc7565b82525050565b60006117e582611bc9565b6117ef8185611c1c565b93506117fa83611b99565b8060005b8381101561182b5781516118128882611769565b975061181d83611bf5565b9250506001810190506117fe565b5085935050505092915050565b600061184382611bd4565b61184d8185611c2d565b93508360208202850161185f85611ba9565b8060005b8581101561189b578484038952815161187c8582611781565b945061188783611c02565b925060208a01995050600181019050611863565b50829750879550505050505092915050565b60006118b882611bdf565b6118c28185611c3e565b93506118cd83611bb9565b8060005b838110156118fe5781516118e58882611795565b97506118f083611c0f565b9250506001810190506118d1565b5085935050505092915050565b600061191682611bea565b6119208185611c4f565b9350611930818560208601611d15565b61193981611e21565b840191505092915050565b600061194f82611bea565b6119598185611c60565b9350611969818560208601611d15565b61197281611e21565b840191505092915050565b600061198a602683611c60565b91507f4f776e61626c653a206e6577206f776e657220697320746865207a65726f206160008301527f64647265737300000000000000000000000000000000000000000000000000006020830152604082019050919050565b60006119f0602083611c60565b91507f4f776e61626c653a2063616c6c6572206973206e6f7420746865206f776e65726000830152602082019050919050565b611a2c81611d0b565b82525050565b611a3b81611d0b565b82525050565b6000602082019050611a5660008301846117cb565b92915050565b6000602082019050611a7160008301846117ad565b92915050565b60006060820190508181036000830152611a9181866117da565b90508181036020830152611aa581856118ad565b90508181036040830152611ab981846118ad565b9050949350505050565b60006020820190508181036000830152611add8184611838565b905092915050565b60006040820190508181036000830152611aff81856118ad565b90508181036020830152611b1381846118ad565b90509392505050565b60006020820190508181036000830152611b368184611944565b905092915050565b60006020820190508181036000830152611b578161197d565b9050919050565b60006020820190508181036000830152611b77816119e3565b9050919050565b6000602082019050611b936000830184611a32565b92915050565b6000819050602082019050919050565b6000819050602082019050919050565b6000819050602082019050919050565b600081519050919050565b600081519050919050565b600081519050919050565b600081519050919050565b6000602082019050919050565b6000602082019050919050565b6000602082019050919050565b600082825260208201905092915050565b600082825260208201905092915050565b600082825260208201905092915050565b600082825260208201905092915050565b600082825260208201905092915050565b6000611c7c82611d0b565b9150611c8783611d0b565b9250827fffffffffffffffffffffffffffffffffffffffffffffffffffffffffffffffff03821115611cbc57611cbb611dc3565b5b828201905092915050565b6000611cd282611ceb565b9050919050565b6000611ce482611ceb565b9050919050565b600073ffffffffffffffffffffffffffffffffffffffff82169050919050565b6000819050919050565b60005b83811015611d33578082015181840152602081019050611d18565b83811115611d42576000848401525b50505050565b60006002820490506001821680611d6057607f821691505b60208210811415611d7457611d73611df2565b5b50919050565b6000611d8582611d0b565b91507fffffffffffffffffffffffffffffffffffffffffffffffffffffffffffffffff821415611db857611db7611dc3565b5b600182019050919050565b7f4e487b7100000000000000000000000000000000000000000000000000000000600052601160045260246000fd5b7f4e487b7100000000000000000000000000000000000000000000000000000000600052602260045260246000fd5b6000601f19601f8301169050919050565b611e3b81611cc7565b8114611e4657600080fd5b50565b611e5281611cd9565b8114611e5d57600080fd5b50565b611e6981611d0b565b8114611e7457600080fd5b5056fea2646970667358221220f9607e70c9743ec67d950f7233e31fc794713801e9a4914e129926279ef1b0a364736f6c63430008000033",
  "immutableReferences": {},
  "source": "// SPDX-License-Identifier: MIT\npragma solidity ^0.8.0;\n\nimport \"./Ownable.sol\";\nimport \"./libraries/SafeMath.sol\";\n\ncontract Fundraiser is Ownable {\n  using SafeMath for uint256;   \n\n  struct Donation {\n    uint256 value;\n    //uint256 conversionFactor;\n    uint256 date;\n  }\n\n  struct allDonation {\n    address donor;\n    uint256 value;\n    uint256 date;\n  }\n  \n  mapping(address => Donation[]) private _donations;\n  mapping(uint256 => allDonation[]) private _allDonations;\n\n  event DonationReceived(address indexed donor, uint256 value);\n  event Withdraw(uint256 amount);\n\n  uint256 public id;\n  string public name;\n  string[] public images;\n  string[] public categories;\n  string public description;\n  string public region;\n  address payable public beneficiary;\n  address public custodian;\n  uint256 public totalDonations;\n  uint256 public totalDonationsCount;\n  uint256 public donationsCount;\n  uint256 public goal;\n\n  constructor(\n    uint256 _id,\n    string memory _name,\n    string[] memory _images,\n    string[] memory _categories,\n    string memory _description,\n    string memory _region,\n    address payable _beneficiary,\n    address _custodian,\n    uint256 _goal\n  )\n  {\n    id = _id;\n    name = _name;\n    images = _images;\n    categories = _categories;\n    description = _description;\n    region = _region;\n    beneficiary = _beneficiary;\n    _transferOwnership(_custodian);\n    goal = _goal;\n  }\n\n  // Set New Beneficiary of a fundraiser\n  function setBeneficiary(address payable _beneficiary) public onlyOwner {\n    beneficiary = _beneficiary;\n  }\n\n  function getImageUrls() public view returns(string[] memory){\n    return images;\n  }\n\n  function getCategories() public view returns(string[] memory){\n    return categories;\n  }\n\n  // Query My Donations count\n  function myDonationsCount() public view returns(uint256) {\n    return _donations[msg.sender].length;\n  }\n\n  // Query all Donations count\n  function allDonationsCount() public view returns(uint256) {\n    return _allDonations[id].length;\n  }\n\n  // Make a donation\n  function donate() public payable {\n    Donation memory donation = Donation({\n      value: msg.value,\n      date: block.timestamp\n    });\n\n    allDonation memory AllDonations = allDonation({\n      donor: msg.sender,\n      value: msg.value,\n      date: block.timestamp\n    });\n\n    _donations[msg.sender].push(donation);\n    _allDonations[id].push(AllDonations);\n    totalDonations = totalDonations.add(msg.value);\n    donationsCount = donationsCount + 1;\n    totalDonationsCount = totalDonationsCount + 1;\n\n    emit DonationReceived(msg.sender, msg.value);\n  }\n\n  // Query my donations\n  function myDonations() public view returns(\n    uint256[] memory values,\n    uint256[] memory dates\n  )\n  {\n    uint256 count = myDonationsCount();\n    values = new uint256[](count);\n    dates = new uint256[](count);\n\n    for (uint256 i = 0; i < count; i++) {\n      Donation storage donation = _donations[msg.sender][i];\n      values[i] = donation.value;\n      dates[i] = donation.date;\n    }\n\n    return (values, dates);\n  }\n\n  // Query all donations\n  function allDonations() public view returns(\n    address[] memory donors,\n    uint256[] memory values,\n    uint256[] memory dates\n  )\n  {\n    uint256 count = allDonationsCount();\n    donors = new address[](count);\n    values = new uint256[](count);\n    dates = new uint256[](count);\n\n    for (uint256 i = 0; i < count; i++) {\n      allDonation storage AllDonation = _allDonations[id][i];\n      donors[i] = AllDonation.donor;\n      values[i] = AllDonation.value;\n      dates[i] = AllDonation.date;\n    }\n\n    return (donors, values, dates);\n  }\n\n  // Withdraw Function\n  function withdraw() public onlyOwner {\n    uint balance = address(this).balance;\n    beneficiary.transfer(balance);\n\n    emit Withdraw(balance);\n  }\n\n  receive() external payable {\n    totalDonations = totalDonations.add(msg.value);\n    donationsCount++;\n  }\n}",
  "sourcePath": "C:\\Users\\PASCHAL\\Documents\\GiveLife-main\\smart-contract\\contracts\\Fundraiser.sol",
  "compiler": {
    "name": "solc",
    "version": "0.8.0+commit.c7dfd78e.Emscripten.clang"
  },
  "schemaVersion": "3.4.10",
  "updatedAt": "2022-12-13T19:37:13.609Z",
  "devdoc": {
    "kind": "dev",
    "methods": {
      "owner()": {
        "details": "Returns the address of the current owner."
      },
      "renounceOwnership()": {
        "details": "Leaves the contract without owner. It will not be possible to call `onlyOwner` functions anymore. Can only be called by the current owner. NOTE: Renouncing ownership will leave the contract without an owner, thereby removing any functionality that is only available to the owner."
      },
      "transferOwnership(address)": {
        "details": "Transfers ownership of the contract to a new account (`newOwner`). Can only be called by the current owner."
      }
    },
    "version": 1
  },
  "userdoc": {
    "kind": "user",
    "methods": {},
    "version": 1
  }
}