{
  "contractName": "FundraiserFactory",
  "abi": [
    {
      "anonymous": false,
      "inputs": [
        {
          "indexed": true,
          "internalType": "contract Fundraiser",
          "name": "fundraiser",
          "type": "address"
        },
        {
          "indexed": true,
          "internalType": "address",
          "name": "owner",
          "type": "address"
        }
      ],
      "name": "FundraiserCreated",
      "type": "event"
    },
    {
      "inputs": [],
      "name": "currentId",
      "outputs": [
        {
          "internalType": "uint256",
          "name": "",
          "type": "uint256"
        }
      ],
      "stateMutability": "view",
      "type": "function",
      "constant": true
    },
    {
      "inputs": [
        {
          "internalType": "string",
          "name": "name",
          "type": "string"
        },
        {
          "internalType": "string[]",
          "name": "images",
          "type": "string[]"
        },
        {
          "internalType": "string[]",
          "name": "categories",
          "type": "string[]"
        },
        {
          "internalType": "string",
          "name": "description",
          "type": "string"
        },
        {
          "internalType": "string",
          "name": "region",
          "type": "string"
        },
        {
          "internalType": "address payable",
          "name": "beneficiary",
          "type": "address"
        },
        {
          "internalType": "uint256",
          "name": "goal",
          "type": "uint256"
        }
      ],
      "name": "createFundraiser",
      "outputs": [],
      "stateMutability": "nonpayable",
      "type": "function"
    },
    {
      "inputs": [],
      "name": "fundraisersCount",
      "outputs": [
        {
          "internalType": "uint256",
          "name": "",
          "type": "uint256"
        }
      ],
      "stateMutability": "view",
      "type": "function",
      "constant": true
    },
    {
      "inputs": [
        {
          "internalType": "uint256",
          "name": "limit",
          "type": "uint256"
        },
        {
          "internalType": "uint256",
          "name": "offset",
          "type": "uint256"
        }
      ],
      "name": "fundraisers",
      "outputs": [
        {
          "internalType": "contract Fundraiser[]",
          "name": "coll",
          "type": "address[]"
        }
      ],
      "stateMutability": "view",
      "type": "function",
      "constant": true
    }
  ],
  "bytecode": "0x608060405234801561001057600080fd5b506134e2806100206000396000f3fe60806040523480156200001157600080fd5b5060043610620000525760003560e01c806328ac59061462000057578063704914f814620000775780639d3b435514620000ad578063e00dd16114620000cf575b600080fd5b6200007560048036038101906200006f91906200058c565b620000f1565b005b6200009560048036038101906200008f9190620006b6565b62000222565b604051620000a491906200091a565b60405180910390f35b620000b76200043a565b604051620000c6919062000960565b60405180910390f35b620000d962000446565b604051620000e8919062000960565b60405180910390f35b600060015488888888888833896040516200010c906200044c565b62000120999897969594939291906200097d565b604051809103906000f0801580156200013d573d6000803e3d6000fd5b5090506000819080600181540180825580915050600190039060005260206000200160009091909190916101000a81548173ffffffffffffffffffffffffffffffffffffffff021916908373ffffffffffffffffffffffffffffffffffffffff1602179055506001806000828254620001b7919062000b74565b925050819055503373ffffffffffffffffffffffffffffffffffffffff168173ffffffffffffffffffffffffffffffffffffffff167fa2398daac0c8053a1e3c0280916c2ec6bc884f0959c27e639a4db829b7eabfb160405160405180910390a35050505050505050565b60606200022e6200043a565b82111562000273576040517f08c379a00000000000000000000000000000000000000000000000000000000081526004016200026a906200093e565b60405180910390fd5b600082620002806200043a565b6200028c919062000bd1565b90508381106200029d57836200029f565b805b905060148110620002b2576014620002b4565b805b90508067ffffffffffffffff811115620002f7577f4e487b7100000000000000000000000000000000000000000000000000000000600052604160045260246000fd5b604051908082528060200260200182016040528015620003265781602001602082028036833780820191505090505b50915060005b8181101562000432576000818562000345919062000b74565b815481106200037d577f4e487b7100000000000000000000000000000000000000000000000000000000600052603260045260246000fd5b9060005260206000200160009054906101000a900473ffffffffffffffffffffffffffffffffffffffff16838281518110620003e2577f4e487b7100000000000000000000000000000000000000000000000000000000600052603260045260246000fd5b602002602001019073ffffffffffffffffffffffffffffffffffffffff16908173ffffffffffffffffffffffffffffffffffffffff16815250508080620004299062000ccb565b9150506200032c565b505092915050565b60008080549050905090565b60015481565b6126f08062000dbd83390190565b6000620004716200046b8462000a73565b62000a3f565b9050808382526020820190508260005b85811015620004b557813585016200049a888262000548565b84526020840193506020830192505060018101905062000481565b5050509392505050565b6000620004d6620004d08462000aa2565b62000a3f565b905082815260208101848484011115620004ef57600080fd5b620004fc84828562000c86565b509392505050565b600081359050620005158162000d88565b92915050565b600082601f8301126200052d57600080fd5b81356200053f8482602086016200045a565b91505092915050565b600082601f8301126200055a57600080fd5b81356200056c848260208601620004bf565b91505092915050565b600081359050620005868162000da2565b92915050565b600080600080600080600060e0888a031215620005a857600080fd5b600088013567ffffffffffffffff811115620005c357600080fd5b620005d18a828b0162000548565b975050602088013567ffffffffffffffff811115620005ef57600080fd5b620005fd8a828b016200051b565b965050604088013567ffffffffffffffff8111156200061b57600080fd5b620006298a828b016200051b565b955050606088013567ffffffffffffffff8111156200064757600080fd5b620006558a828b0162000548565b945050608088013567ffffffffffffffff8111156200067357600080fd5b620006818a828b0162000548565b93505060a0620006948a828b0162000504565b92505060c0620006a78a828b0162000575565b91505092959891949750929550565b60008060408385031215620006ca57600080fd5b6000620006da8582860162000575565b9250506020620006ed8582860162000575565b9150509250929050565b600062000705838362000834565b60208301905092915050565b60006200071f838362000845565b905092915050565b620007328162000c20565b82525050565b620007438162000c0c565b82525050565b6000620007568262000af5565b62000762818562000b30565b93506200076f8362000ad5565b8060005b83811015620007a65781516200078a8882620006f7565b9750620007978362000b16565b92505060018101905062000773565b5085935050505092915050565b6000620007c08262000b00565b620007cc818562000b41565b935083602082028501620007e08562000ae5565b8060005b8581101562000822578484038952815162000800858262000711565b94506200080d8362000b23565b925060208a01995050600181019050620007e4565b50829750879550505050505092915050565b6200083f8162000c5e565b82525050565b6000620008528262000b0b565b6200085e818562000b52565b93506200087081856020860162000c95565b6200087b8162000d77565b840191505092915050565b6000620008938262000b0b565b6200089f818562000b63565b9350620008b181856020860162000c95565b620008bc8162000d77565b840191505092915050565b6000620008d660148362000b63565b91507f6f6666736574206f7574206f6620626f756e64730000000000000000000000006000830152602082019050919050565b620009148162000c54565b82525050565b6000602082019050818103600083015262000936818462000749565b905092915050565b600060208201905081810360008301526200095981620008c7565b9050919050565b600060208201905062000977600083018462000909565b92915050565b60006101208201905062000995600083018c62000909565b8181036020830152620009a9818b62000886565b90508181036040830152620009bf818a620007b3565b90508181036060830152620009d58189620007b3565b90508181036080830152620009eb818862000886565b905081810360a083015262000a01818762000886565b905062000a1260c083018662000727565b62000a2160e083018562000738565b62000a3161010083018462000909565b9a9950505050505050505050565b6000604051905081810181811067ffffffffffffffff8211171562000a695762000a6862000d48565b5b8060405250919050565b600067ffffffffffffffff82111562000a915762000a9062000d48565b5b602082029050602081019050919050565b600067ffffffffffffffff82111562000ac05762000abf62000d48565b5b601f19601f8301169050602081019050919050565b6000819050602082019050919050565b6000819050602082019050919050565b600081519050919050565b600081519050919050565b600081519050919050565b6000602082019050919050565b6000602082019050919050565b600082825260208201905092915050565b600082825260208201905092915050565b600082825260208201905092915050565b600082825260208201905092915050565b600062000b818262000c54565b915062000b8e8362000c54565b9250827fffffffffffffffffffffffffffffffffffffffffffffffffffffffffffffffff0382111562000bc65762000bc562000d19565b5b828201905092915050565b600062000bde8262000c54565b915062000beb8362000c54565b92508282101562000c015762000c0062000d19565b5b828203905092915050565b600062000c198262000c34565b9050919050565b600062000c2d8262000c34565b9050919050565b600073ffffffffffffffffffffffffffffffffffffffff82169050919050565b6000819050919050565b600062000c6b8262000c72565b9050919050565b600062000c7f8262000c34565b9050919050565b82818337600083830152505050565b60005b8381101562000cb557808201518184015260208101905062000c98565b8381111562000cc5576000848401525b50505050565b600062000cd88262000c54565b91507fffffffffffffffffffffffffffffffffffffffffffffffffffffffffffffffff82141562000d0e5762000d0d62000d19565b5b600182019050919050565b7f4e487b7100000000000000000000000000000000000000000000000000000000600052601160045260246000fd5b7f4e487b7100000000000000000000000000000000000000000000000000000000600052604160045260246000fd5b6000601f19601f8301169050919050565b62000d938162000c20565b811462000d9f57600080fd5b50565b62000dad8162000c54565b811462000db957600080fd5b5056fe60806040523480156200001157600080fd5b50604051620026f0380380620026f08339818101604052810190620000379190620004dd565b620000576200004b6200014360201b60201c565b6200014b60201b60201c565b886003819055508760049080519060200190620000769291906200020f565b5086600590805190602001906200008f929190620002a0565b508560069080519060200190620000a8929190620002a0565b508460079080519060200190620000c19291906200020f565b508360089080519060200190620000da9291906200020f565b5082600960006101000a81548173ffffffffffffffffffffffffffffffffffffffff021916908373ffffffffffffffffffffffffffffffffffffffff1602179055506200012d826200014b60201b60201c565b80600e8190555050505050505050505062000833565b600033905090565b60008060009054906101000a900473ffffffffffffffffffffffffffffffffffffffff169050816000806101000a81548173ffffffffffffffffffffffffffffffffffffffff021916908373ffffffffffffffffffffffffffffffffffffffff1602179055508173ffffffffffffffffffffffffffffffffffffffff168173ffffffffffffffffffffffffffffffffffffffff167f8be0079c531659141344cd1fd0a4f28419497f9722a3daafe3b4186f6b6457e060405160405180910390a35050565b8280546200021d9062000751565b90600052602060002090601f0160209004810192826200024157600085556200028d565b82601f106200025c57805160ff19168380011785556200028d565b828001600101855582156200028d579182015b828111156200028c5782518255916020019190600101906200026f565b5b5090506200029c919062000307565b5090565b828054828255906000526020600020908101928215620002f4579160200282015b82811115620002f3578251829080519060200190620002e29291906200020f565b5091602001919060010190620002c1565b5b50905062000303919062000326565b5090565b5b808211156200032257600081600090555060010162000308565b5090565b5b808211156200034a57600081816200034091906200034e565b5060010162000327565b5090565b5080546200035c9062000751565b6000825580601f1062000370575062000391565b601f01602090049060005260206000209081019062000390919062000307565b5b50565b6000620003ab620003a58462000667565b62000633565b9050808382526020820190508260005b85811015620003ef5781518501620003d4888262000499565b845260208401935060208301925050600181019050620003bb565b5050509392505050565b6000620004106200040a8462000696565b62000633565b9050828152602081018484840111156200042957600080fd5b620004368482856200071b565b509392505050565b6000815190506200044f81620007e5565b92915050565b6000815190506200046681620007ff565b92915050565b600082601f8301126200047e57600080fd5b81516200049084826020860162000394565b91505092915050565b600082601f830112620004ab57600080fd5b8151620004bd848260208601620003f9565b91505092915050565b600081519050620004d78162000819565b92915050565b60008060008060008060008060006101208a8c031215620004fd57600080fd5b60006200050d8c828d01620004c6565b99505060208a015167ffffffffffffffff8111156200052b57600080fd5b620005398c828d0162000499565b98505060408a015167ffffffffffffffff8111156200055757600080fd5b620005658c828d016200046c565b97505060608a015167ffffffffffffffff8111156200058357600080fd5b620005918c828d016200046c565b96505060808a015167ffffffffffffffff811115620005af57600080fd5b620005bd8c828d0162000499565b95505060a08a015167ffffffffffffffff811115620005db57600080fd5b620005e98c828d0162000499565b94505060c0620005fc8c828d0162000455565b93505060e06200060f8c828d016200043e565b925050610100620006238c828d01620004c6565b9150509295985092959850929598565b6000604051905081810181811067ffffffffffffffff821117156200065d576200065c620007b6565b5b8060405250919050565b600067ffffffffffffffff821115620006855762000684620007b6565b5b602082029050602081019050919050565b600067ffffffffffffffff821115620006b457620006b3620007b6565b5b601f19601f8301169050602081019050919050565b6000620006d682620006f1565b9050919050565b6000620006ea82620006f1565b9050919050565b600073ffffffffffffffffffffffffffffffffffffffff82169050919050565b6000819050919050565b60005b838110156200073b5780820151818401526020810190506200071e565b838111156200074b576000848401525b50505050565b600060028204905060018216806200076a57607f821691505b6020821081141562000781576200078062000787565b5b50919050565b7f4e487b7100000000000000000000000000000000000000000000000000000000600052602260045260246000fd5b7f4e487b7100000000000000000000000000000000000000000000000000000000600052604160045260246000fd5b620007f081620006c9565b8114620007fc57600080fd5b50565b6200080a81620006dd565b81146200081657600080fd5b50565b620008248162000711565b81146200083057600080fd5b50565b611ead80620008436000396000f3fe60806040526004361061014f5760003560e01c80634db0412c116100b6578063af640d0f1161006f578063af640d0f1461047d578063c6cdbe5e146104a8578063de2ed893146104e5578063dfe0039b14610510578063ed88c68e1461053d578063f2fde38b1461054757610189565b80634db0412c1461037d5780635062d68d146103a8578063715018a6146103d35780637284e416146103ea57806384856482146104155780638da5cb5b1461045257610189565b80631f522595116101085780631f5225951461028f578063375b74c3146102ba57806338af3eed146102e55780633ccfd60b146103105780633fa095da14610327578063401938831461035257610189565b80630180b97c1461018e57806306fdde03146101b95780630fd63e8e146101e45780631868611b1461020f5780631a57f7b41461023a5780631c31f7101461026657610189565b366101895761016934600b5461057090919063ffffffff16565b600b81905550600d600081548092919061018290611d7a565b9190505550005b600080fd5b34801561019a57600080fd5b506101a3610586565b6040516101b09190611b7e565b60405180910390f35b3480156101c557600080fd5b506101ce6105d0565b6040516101db9190611b1c565b60405180910390f35b3480156101f057600080fd5b506101f961065e565b6040516102069190611b7e565b60405180910390f35b34801561021b57600080fd5b50610224610664565b6040516102319190611ac3565b60405180910390f35b34801561024657600080fd5b5061024f61073d565b60405161025d929190611ae5565b60405180910390f35b34801561027257600080fd5b5061028d60048036038101906102889190611717565b610970565b005b34801561029b57600080fd5b506102a4610a30565b6040516102b19190611b7e565b60405180910390f35b3480156102c657600080fd5b506102cf610a36565b6040516102dc9190611a41565b60405180910390f35b3480156102f157600080fd5b506102fa610a5c565b6040516103079190611a5c565b60405180910390f35b34801561031c57600080fd5b50610325610a82565b005b34801561033357600080fd5b5061033c610ba6565b6040516103499190611b7e565b60405180910390f35b34801561035e57600080fd5b50610367610bc6565b6040516103749190611b7e565b60405180910390f35b34801561038957600080fd5b50610392610bcc565b60405161039f9190611ac3565b60405180910390f35b3480156103b457600080fd5b506103bd610ca5565b6040516103ca9190611b1c565b60405180910390f35b3480156103df57600080fd5b506103e8610d33565b005b3480156103f657600080fd5b506103ff610dbb565b60405161040c9190611b1c565b60405180910390f35b34801561042157600080fd5b5061043c60048036038101906104379190611740565b610e49565b6040516104499190611b1c565b60405180910390f35b34801561045e57600080fd5b50610467610ef5565b6040516104749190611a41565b60405180910390f35b34801561048957600080fd5b50610492610f1e565b60405161049f9190611b7e565b60405180910390f35b3480156104b457600080fd5b506104cf60048036038101906104ca9190611740565b610f24565b6040516104dc9190611b1c565b60405180910390f35b3480156104f157600080fd5b506104fa610fd0565b6040516105079190611b7e565b60405180910390f35b34801561051c57600080fd5b50610525610fd6565b60405161053493929190611a77565b60405180910390f35b6105456112eb565b005b34801561055357600080fd5b5061056e600480360381019061056991906116ee565b6114eb565b005b6000818361057e9190611c71565b905092915050565b6000600160003373ffffffffffffffffffffffffffffffffffffffff1673ffffffffffffffffffffffffffffffffffffffff16815260200190815260200160002080549050905090565b600480546105dd90611d48565b80601f016020809104026020016040519081016040528092919081815260200182805461060990611d48565b80156106565780601f1061062b57610100808354040283529160200191610656565b820191906000526020600020905b81548152906001019060200180831161063957829003601f168201915b505050505081565b600c5481565b60606005805480602002602001604051908101604052809291908181526020016000905b828210156107345783829060005260206000200180546106a790611d48565b80601f01602080910402602001604051908101604052809291908181526020018280546106d390611d48565b80156107205780601f106106f557610100808354040283529160200191610720565b820191906000526020600020905b81548152906001019060200180831161070357829003601f168201915b505050505081526020019060010190610688565b50505050905090565b606080600061074a610586565b90508067ffffffffffffffff81111561078c577f4e487b7100000000000000000000000000000000000000000000000000000000600052604160045260246000fd5b6040519080825280602002602001820160405280156107ba5781602001602082028036833780820191505090505b5092508067ffffffffffffffff8111156107fd577f4e487b7100000000000000000000000000000000000000000000000000000000600052604160045260246000fd5b60405190808252806020026020018201604052801561082b5781602001602082028036833780820191505090505b50915060005b8181101561096a576000600160003373ffffffffffffffffffffffffffffffffffffffff1673ffffffffffffffffffffffffffffffffffffffff16815260200190815260200160002082815481106108b2577f4e487b7100000000000000000000000000000000000000000000000000000000600052603260045260246000fd5b906000526020600020906002020190508060000154858381518110610900577f4e487b7100000000000000000000000000000000000000000000000000000000600052603260045260246000fd5b602002602001018181525050806001015484838151811061094a577f4e487b7100000000000000000000000000000000000000000000000000000000600052603260045260246000fd5b60200260200101818152505050808061096290611d7a565b915050610831565b50509091565b6109786115e3565b73ffffffffffffffffffffffffffffffffffffffff16610996610ef5565b73ffffffffffffffffffffffffffffffffffffffff16146109ec576040517f08c379a00000000000000000000000000000000000000000000000000000000081526004016109e390611b5e565b60405180910390fd5b80600960006101000a81548173ffffffffffffffffffffffffffffffffffffffff021916908373ffffffffffffffffffffffffffffffffffffffff16021790555050565b600d5481565b600a60009054906101000a900473ffffffffffffffffffffffffffffffffffffffff1681565b600960009054906101000a900473ffffffffffffffffffffffffffffffffffffffff1681565b610a8a6115e3565b73ffffffffffffffffffffffffffffffffffffffff16610aa8610ef5565b73ffffffffffffffffffffffffffffffffffffffff1614610afe576040517f08c379a0000000000000000000000000000000000000000000000000000000008152600401610af590611b5e565b60405180910390fd5b6000479050600960009054906101000a900473ffffffffffffffffffffffffffffffffffffffff1673ffffffffffffffffffffffffffffffffffffffff166108fc829081150290604051600060405180830381858888f19350505050158015610b6b573d6000803e3d6000fd5b507f5b6b431d4476a211bb7d41c20d1aab9ae2321deee0d20be3d9fc9b1093fa6e3d81604051610b9b9190611b7e565b60405180910390a150565b600060026000600354815260200190815260200160002080549050905090565b600e5481565b60606006805480602002602001604051908101604052809291908181526020016000905b82821015610c9c578382906000526020600020018054610c0f90611d48565b80601f0160208091040260200160405190810160405280929190818152602001828054610c3b90611d48565b8015610c885780601f10610c5d57610100808354040283529160200191610c88565b820191906000526020600020905b815481529060010190602001808311610c6b57829003601f168201915b505050505081526020019060010190610bf0565b50505050905090565b60088054610cb290611d48565b80601f0160208091040260200160405190810160405280929190818152602001828054610cde90611d48565b8015610d2b5780601f10610d0057610100808354040283529160200191610d2b565b820191906000526020600020905b815481529060010190602001808311610d0e57829003601f168201915b505050505081565b610d3b6115e3565b73ffffffffffffffffffffffffffffffffffffffff16610d59610ef5565b73ffffffffffffffffffffffffffffffffffffffff1614610daf576040517f08c379a0000000000000000000000000000000000000000000000000000000008152600401610da690611b5e565b60405180910390fd5b610db960006115eb565b565b60078054610dc890611d48565b80601f0160208091040260200160405190810160405280929190818152602001828054610df490611d48565b8015610e415780601f10610e1657610100808354040283529160200191610e41565b820191906000526020600020905b815481529060010190602001808311610e2457829003601f168201915b505050505081565b60058181548110610e5957600080fd5b906000526020600020016000915090508054610e7490611d48565b80601f0160208091040260200160405190810160405280929190818152602001828054610ea090611d48565b8015610eed5780601f10610ec257610100808354040283529160200191610eed565b820191906000526020600020905b815481529060010190602001808311610ed057829003601f168201915b505050505081565b60008060009054906101000a900473ffffffffffffffffffffffffffffffffffffffff16905090565b60035481565b60068181548110610f3457600080fd5b906000526020600020016000915090508054610f4f90611d48565b80601f0160208091040260200160405190810160405280929190818152602001828054610f7b90611d48565b8015610fc85780601f10610f9d57610100808354040283529160200191610fc8565b820191906000526020600020905b815481529060010190602001808311610fab57829003601f168201915b505050505081565b600b5481565b60608060606000610fe5610ba6565b90508067ffffffffffffffff811115611027577f4e487b7100000000000000000000000000000000000000000000000000000000600052604160045260246000fd5b6040519080825280602002602001820160405280156110555781602001602082028036833780820191505090505b5093508067ffffffffffffffff811115611098577f4e487b7100000000000000000000000000000000000000000000000000000000600052604160045260246000fd5b6040519080825280602002602001820160405280156110c65781602001602082028036833780820191505090505b5092508067ffffffffffffffff811115611109577f4e487b7100000000000000000000000000000000000000000000000000000000600052604160045260246000fd5b6040519080825280602002602001820160405280156111375781602001602082028036833780820191505090505b50915060005b818110156112e45760006002600060035481526020019081526020016000208281548110611194577f4e487b7100000000000000000000000000000000000000000000000000000000600052603260045260246000fd5b906000526020600020906003020190508060000160009054906101000a900473ffffffffffffffffffffffffffffffffffffffff16868381518110611202577f4e487b7100000000000000000000000000000000000000000000000000000000600052603260045260246000fd5b602002602001019073ffffffffffffffffffffffffffffffffffffffff16908173ffffffffffffffffffffffffffffffffffffffff1681525050806001015485838151811061127a577f4e487b7100000000000000000000000000000000000000000000000000000000600052603260045260246000fd5b60200260200101818152505080600201548483815181106112c4577f4e487b7100000000000000000000000000000000000000000000000000000000600052603260045260246000fd5b6020026020010181815250505080806112dc90611d7a565b91505061113d565b5050909192565b60006040518060400160405280348152602001428152509050600060405180606001604052803373ffffffffffffffffffffffffffffffffffffffff168152602001348152602001428152509050600160003373ffffffffffffffffffffffffffffffffffffffff1673ffffffffffffffffffffffffffffffffffffffff1681526020019081526020016000208290806001815401808255809150506001900390600052602060002090600202016000909190919091506000820151816000015560208201518160010155505060026000600354815260200190815260200160002081908060018154018082558091505060019003906000526020600020906003020160009091909190915060008201518160000160006101000a81548173ffffffffffffffffffffffffffffffffffffffff021916908373ffffffffffffffffffffffffffffffffffffffff1602179055506020820151816001015560408201518160020155505061146934600b5461057090919063ffffffff16565b600b819055506001600d5461147e9190611c71565b600d819055506001600c546114939190611c71565b600c819055503373ffffffffffffffffffffffffffffffffffffffff167f264f630d9efa0d07053a31163641d9fcc0adafc9d9e76f1c37c2ce3a558d2c52346040516114df9190611b7e565b60405180910390a25050565b6114f36115e3565b73ffffffffffffffffffffffffffffffffffffffff16611511610ef5565b73ffffffffffffffffffffffffffffffffffffffff1614611567576040517f08c379a000000000000000000000000000000000000000000000000000000000815260040161155e90611b5e565b60405180910390fd5b600073ffffffffffffffffffffffffffffffffffffffff168173ffffffffffffffffffffffffffffffffffffffff1614156115d7576040517f08c379a00000000000000000000000000000000000000000000000000000000081526004016115ce90611b3e565b60405180910390fd5b6115e0816115eb565b50565b600033905090565b60008060009054906101000a900473ffffffffffffffffffffffffffffffffffffffff169050816000806101000a81548173ffffffffffffffffffffffffffffffffffffffff021916908373ffffffffffffffffffffffffffffffffffffffff1602179055508173ffffffffffffffffffffffffffffffffffffffff168173ffffffffffffffffffffffffffffffffffffffff167f8be0079c531659141344cd1fd0a4f28419497f9722a3daafe3b4186f6b6457e060405160405180910390a35050565b6000813590506116be81611e32565b92915050565b6000813590506116d381611e49565b92915050565b6000813590506116e881611e60565b92915050565b60006020828403121561170057600080fd5b600061170e848285016116af565b91505092915050565b60006020828403121561172957600080fd5b6000611737848285016116c4565b91505092915050565b60006020828403121561175257600080fd5b6000611760848285016116d9565b91505092915050565b600061177583836117bc565b60208301905092915050565b600061178d838361190b565b905092915050565b60006117a18383611a23565b60208301905092915050565b6117b681611cd9565b82525050565b6117c581611cc7565b82525050565b6117d481611cc7565b82525050565b60006117e582611bc9565b6117ef8185611c1c565b93506117fa83611b99565b8060005b8381101561182b5781516118128882611769565b975061181d83611bf5565b9250506001810190506117fe565b5085935050505092915050565b600061184382611bd4565b61184d8185611c2d565b93508360208202850161185f85611ba9565b8060005b8581101561189b578484038952815161187c8582611781565b945061188783611c02565b925060208a01995050600181019050611863565b50829750879550505050505092915050565b60006118b882611bdf565b6118c28185611c3e565b93506118cd83611bb9565b8060005b838110156118fe5781516118e58882611795565b97506118f083611c0f565b9250506001810190506118d1565b5085935050505092915050565b600061191682611bea565b6119208185611c4f565b9350611930818560208601611d15565b61193981611e21565b840191505092915050565b600061194f82611bea565b6119598185611c60565b9350611969818560208601611d15565b61197281611e21565b840191505092915050565b600061198a602683611c60565b91507f4f776e61626c653a206e6577206f776e657220697320746865207a65726f206160008301527f64647265737300000000000000000000000000000000000000000000000000006020830152604082019050919050565b60006119f0602083611c60565b91507f4f776e61626c653a2063616c6c6572206973206e6f7420746865206f776e65726000830152602082019050919050565b611a2c81611d0b565b82525050565b611a3b81611d0b565b82525050565b6000602082019050611a5660008301846117cb565b92915050565b6000602082019050611a7160008301846117ad565b92915050565b60006060820190508181036000830152611a9181866117da565b90508181036020830152611aa581856118ad565b90508181036040830152611ab981846118ad565b9050949350505050565b60006020820190508181036000830152611add8184611838565b905092915050565b60006040820190508181036000830152611aff81856118ad565b90508181036020830152611b1381846118ad565b90509392505050565b60006020820190508181036000830152611b368184611944565b905092915050565b60006020820190508181036000830152611b578161197d565b9050919050565b60006020820190508181036000830152611b77816119e3565b9050919050565b6000602082019050611b936000830184611a32565b92915050565b6000819050602082019050919050565b6000819050602082019050919050565b6000819050602082019050919050565b600081519050919050565b600081519050919050565b600081519050919050565b600081519050919050565b6000602082019050919050565b6000602082019050919050565b6000602082019050919050565b600082825260208201905092915050565b600082825260208201905092915050565b600082825260208201905092915050565b600082825260208201905092915050565b600082825260208201905092915050565b6000611c7c82611d0b565b9150611c8783611d0b565b9250827fffffffffffffffffffffffffffffffffffffffffffffffffffffffffffffffff03821115611cbc57611cbb611dc3565b5b828201905092915050565b6000611cd282611ceb565b9050919050565b6000611ce482611ceb565b9050919050565b600073ffffffffffffffffffffffffffffffffffffffff82169050919050565b6000819050919050565b60005b83811015611d33578082015181840152602081019050611d18565b83811115611d42576000848401525b50505050565b60006002820490506001821680611d6057607f821691505b60208210811415611d7457611d73611df2565b5b50919050565b6000611d8582611d0b565b91507fffffffffffffffffffffffffffffffffffffffffffffffffffffffffffffffff821415611db857611db7611dc3565b5b600182019050919050565b7f4e487b7100000000000000000000000000000000000000000000000000000000600052601160045260246000fd5b7f4e487b7100000000000000000000000000000000000000000000000000000000600052602260045260246000fd5b6000601f19601f8301169050919050565b611e3b81611cc7565b8114611e4657600080fd5b50565b611e5281611cd9565b8114611e5d57600080fd5b50565b611e6981611d0b565b8114611e7457600080fd5b5056fea2646970667358221220f9607e70c9743ec67d950f7233e31fc794713801e9a4914e129926279ef1b0a364736f6c63430008000033a26469706673582212204f1e38193b7487c206bf8e72b860c70221ef12f851a7f97cdedd17def0772fb764736f6c63430008000033",
  "immutableReferences": {},
  "source": "// SPDX-License-Identifier: MIT\npragma solidity ^0.8.0;\n\nimport \"./Fundraiser.sol\";\n\ncontract FundraiserFactory {\n  Fundraiser[] private _fundraisers;\n\n  event FundraiserCreated(Fundraiser indexed fundraiser, address indexed owner);\n\n  uint256 constant maxLimit = 20;\n\n  uint256 public currentId;\n\n  function createFundraiser(\n    string memory name,\n    string[] memory images,\n    string[] memory categories,\n    string memory description,\n    string memory region,\n    address payable beneficiary,\n    uint256 goal\n  )\n  public\n  {\n    Fundraiser fundraiser = new Fundraiser(\n      currentId,\n      name,\n      images,\n      categories,\n      description,\n      region,\n      beneficiary,\n      msg.sender,\n      goal\n    );\n    _fundraisers.push(fundraiser);\n    currentId += 1;\n    emit FundraiserCreated(fundraiser, msg.sender);\n  }\n\n  // Query the number of fundrisers in our smart contract\n  function fundraisersCount() public view returns(uint256) {\n    return _fundraisers.length;\n  }\n\n  // Query all fundraisers in our smart contract\n  function fundraisers(uint256 limit, uint256 offset) \n    public \n    view\n    returns(Fundraiser[] memory coll)\n  {\n    require(offset <= fundraisersCount(), \"offset out of bounds\");\n    uint256 size = fundraisersCount() - offset;\n    // size should not exceed the maxLimit\n    size = size < limit ? size : limit;\n    size = size < maxLimit ? size : maxLimit;\n    coll = new Fundraiser[](size);\n\n    for(uint256 i = 0; i < size; i++) {\n      coll[i] = _fundraisers[offset + i];\n    }\n    \n    return coll;\n  }\n}",
  "sourcePath": "C:\\Users\\PASCHAL\\Documents\\GiveLife-main\\smart-contract\\contracts\\FundraiserFactory.sol",
  "compiler": {
    "name": "solc",
    "version": "0.8.0+commit.c7dfd78e.Emscripten.clang"
  },
  "schemaVersion": "3.4.10",
  "updatedAt": "2022-12-13T19:38:06.605Z",
  "networkType": "ethereum",
  "devdoc": {
    "kind": "dev",
    "methods": {},
    "version": 1
  },
  "userdoc": {
    "kind": "user",
    "methods": {},
    "version": 1
  }
}